{
  "safeAddress": "0x73a7AA145338587f7aB7f63c06d187C85dF4727e",
  "txId": "multisig_0x73a7AA145338587f7aB7f63c06d187C85dF4727e_0xba28109747222d6cfb7f0fb75f03d49957e343674bc116162b038e244dbcc6d6",
  "executedAt": 1638738050000,
  "txStatus": "SUCCESS",
  "txInfo": {
    "type": "Custom",
    "to": {
      "value": "0xA238CBeb142c10Ef7Ad8442C6D1f9E89e07e7761",
      "name": "Gnosis Safe: MultiSend 1.3.0",
      "logoUri": "https://safe-transaction-assets.safe.global/contracts/logos/0xA238CBeb142c10Ef7Ad8442C6D1f9E89e07e7761.png"
    },
    "dataSize": "868",
    "value": "0",
    "methodName": "multiSend",
    "actionCount": 3,
    "isCancellation": false
  },
  "txData": {
    "hexData": "0x8d80ff0a0000000000000000000000000000000000000000000000000000000000000020000000000000000000000000000000000000000000000000000000000000030b00e592427a0aece92de3edee1f18e0157c0586156400000000000000000000000000000000000000000000000000005af3107a40000000000000000000000000000000000000000000000000000000000000000104414bf389000000000000000000000000c778417e063141139fce010982780140aa0cd5ab0000000000000000000000001f9840a85d5af5bf1d1762f925bdaddc4201f9840000000000000000000000000000000000000000000000000000000000000bb800000000000000000000000073a7aa145338587f7ab7f63c06d187c85df4727e0000000000000000000000000000000000000000000000000000000061ad2bca00000000000000000000000000000000000000000000000000005af3107a400000000000000000000000000000000000000000000000000000001741f406e90d000000000000000000000000000000000000000000000000000000000000000000e592427a0aece92de3edee1f18e0157c0586156400000000000000000000000000000000000000000000000000005af3107a40000000000000000000000000000000000000000000000000000000000000000104414bf389000000000000000000000000c778417e063141139fce010982780140aa0cd5ab000000000000000000000000c7ad46e0b8a400bb3c915120d284aafba8fc4735000000000000000000000000000000000000000000000000000000000000271000000000000000000000000073a7aa145338587f7ab7f63c06d187c85df4727e0000000000000000000000000000000000000000000000000000000061ad2bf700000000000000000000000000000000000000000000000000005af3107a40000000000000000000000000000000000000000000021d2364d4f38f29b572e568000000000000000000000000000000000000000000000000000000000000000001ed1da5365ff0a4915b10f4e9d2433f9608a83c7800000000000000000000000000000000000000000000000000005af3107a40000000000000000000000000000000000000000000000000000000000000000004d0e30db0000000000000000000000000000000000000000000",
    "dataDecoded": {
      "method": "multiSend",
      "parameters": [
        {
          "name": "transactions",
          "type": "bytes",
          "value": "0x00e592427a0aece92de3edee1f18e0157c0586156400000000000000000000000000000000000000000000000000005af3107a40000000000000000000000000000000000000000000000000000000000000000104414bf389000000000000000000000000c778417e063141139fce010982780140aa0cd5ab0000000000000000000000001f9840a85d5af5bf1d1762f925bdaddc4201f9840000000000000000000000000000000000000000000000000000000000000bb800000000000000000000000073a7aa145338587f7ab7f63c06d187c85df4727e0000000000000000000000000000000000000000000000000000000061ad2bca00000000000000000000000000000000000000000000000000005af3107a400000000000000000000000000000000000000000000000000000001741f406e90d000000000000000000000000000000000000000000000000000000000000000000e592427a0aece92de3edee1f18e0157c0586156400000000000000000000000000000000000000000000000000005af3107a40000000000000000000000000000000000000000000000000000000000000000104414bf389000000000000000000000000c778417e063141139fce010982780140aa0cd5ab000000000000000000000000c7ad46e0b8a400bb3c915120d284aafba8fc4735000000000000000000000000000000000000000000000000000000000000271000000000000000000000000073a7aa145338587f7ab7f63c06d187c85df4727e0000000000000000000000000000000000000000000000000000000061ad2bf700000000000000000000000000000000000000000000000000005af3107a40000000000000000000000000000000000000000000021d2364d4f38f29b572e568000000000000000000000000000000000000000000000000000000000000000001ed1da5365ff0a4915b10f4e9d2433f9608a83c7800000000000000000000000000000000000000000000000000005af3107a40000000000000000000000000000000000000000000000000000000000000000004d0e30db0",
          "valueDecoded": [
            {
              "operation": 0,
              "to": "0xE592427A0AEce92De3Edee1F18E0157C05861564",
              "value": "100000000000000",
              "data": "0x414bf389000000000000000000000000c778417e063141139fce010982780140aa0cd5ab0000000000000000000000001f9840a85d5af5bf1d1762f925bdaddc4201f9840000000000000000000000000000000000000000000000000000000000000bb800000000000000000000000073a7aa145338587f7ab7f63c06d187c85df4727e0000000000000000000000000000000000000000000000000000000061ad2bca00000000000000000000000000000000000000000000000000005af3107a400000000000000000000000000000000000000000000000000000001741f406e90d0000000000000000000000000000000000000000000000000000000000000000",
              "dataDecoded": {
                "method": "exactInputSingle",
                "parameters": [
                  {
                    "name": "params",
                    "type": "(address,address,uint24,address,uint256,uint256,uint256,uint160)",
                    "value": [
                      "0xc778417E063141139Fce010982780140Aa0cD5Ab",
                      "0x1f9840a85d5aF5bf1D1762F925BDADdC4201F984",
                      "3000",
                      "0x73a7AA145338587f7aB7f63c06d187C85dF4727e",
                      "1638738890",
                      "100000000000000",
                      "25572034406669",
                      "0"
                    ]
                  }
                ]
              }
            },
            {
              "operation": 0,
              "to": "0xE592427A0AEce92De3Edee1F18E0157C05861564",
              "value": "100000000000000",
              "data": "0x414bf389000000000000000000000000c778417e063141139fce010982780140aa0cd5ab000000000000000000000000c7ad46e0b8a400bb3c915120d284aafba8fc4735000000000000000000000000000000000000000000000000000000000000271000000000000000000000000073a7aa145338587f7ab7f63c06d187c85df4727e0000000000000000000000000000000000000000000000000000000061ad2bf700000000000000000000000000000000000000000000000000005af3107a40000000000000000000000000000000000000000000021d2364d4f38f29b572e5680000000000000000000000000000000000000000000000000000000000000000",
              "dataDecoded": {
                "method": "exactInputSingle",
                "parameters": [
                  {
                    "name": "params",
                    "type": "(address,address,uint24,address,uint256,uint256,uint256,uint160)",
                    "value": [
                      "0xc778417E063141139Fce010982780140Aa0cD5Ab",
                      "0xc7AD46e0b8a400Bb3C915120d284AafbA8fc4735",
                      "10000",
                      "0x73a7AA145338587f7aB7f63c06d187C85dF4727e",
                      "1638738935",
                      "100000000000000",
                      "654196011257587956735731048",
                      "0"
                    ]
                  }
                ]
              }
            },
            {
              "operation": 0,
              "to": "0xeD1dA5365ff0a4915b10F4E9d2433f9608a83c78",
              "value": "100000000000000",
              "data": "0xd0e30db0",
              "dataDecoded": {
                "method": "deposit",
                "parameters": []
              }
            }
          ]
        }
      ]
    },
    "to": {
      "value": "0xA238CBeb142c10Ef7Ad8442C6D1f9E89e07e7761",
      "name": "Gnosis Safe: MultiSend 1.3.0",
      "logoUri": "https://safe-transaction-assets.safe.global/contracts/logos/0xA238CBeb142c10Ef7Ad8442C6D1f9E89e07e7761.png"
    },
    "value": "0",
    "operation": 0,
    "trustedDelegateCallTarget": false,
    "addressInfoIndex": {
      "0xc7AD46e0b8a400Bb3C915120d284AafbA8fc4735": {
        "value": "0xc7AD46e0b8a400Bb3C915120d284AafbA8fc4735",
        "name": "Dai Stablecoin",
        "logoUri": "https://safe-transaction-assets.safe.global/tokens/logos/0xc7AD46e0b8a400Bb3C915120d284AafbA8fc4735.png"
      },
      "0x1f9840a85d5aF5bf1D1762F925BDADdC4201F984": {
        "value": "0x1f9840a85d5aF5bf1D1762F925BDADdC4201F984",
        "name": "Uniswap",
        "logoUri": "https://safe-transaction-assets.safe.global/tokens/logos/0x1f9840a85d5aF5bf1D1762F925BDADdC4201F984.png"
      },
      "0xc778417E063141139Fce010982780140Aa0cD5Ab": {
        "value": "0xc778417E063141139Fce010982780140Aa0cD5Ab",
        "name": "Wrapped Ether",
        "logoUri": "https://safe-transaction-assets.safe.global/tokens/logos/0xc778417E063141139Fce010982780140Aa0cD5Ab.png"
      }
    }
  },
  "detailedExecutionInfo": {
    "type": "MULTISIG",
    "submittedAt": 1638738012759,
    "nonce": 1,
    "safeTxGas": "0",
    "baseGas": "0",
    "gasPrice": "0",
    "gasToken": "0x0000000000000000000000000000000000000000",
    "refundReceiver": {
      "value": "0x0000000000000000000000000000000000000000"
    },
    "safeTxHash": "0xba28109747222d6cfb7f0fb75f03d49957e343674bc116162b038e244dbcc6d6",
    "executor": {
      "value": "0x02270bd144e70cE6963bA02F575776A16184E1E6"
    },
    "signers": [
      {
        "value": "0x02270bd144e70cE6963bA02F575776A16184E1E6"
      }
    ],
    "confirmationsRequired": 1,
    "confirmations": [
      {
        "signer": {
          "value": "0x02270bd144e70cE6963bA02F575776A16184E1E6"
        },
        "signature": "0xae48cfc561888cdf44ab115b817777f09af5fd82c3327c12f0010777d1d89ae56d869642005872dabb1b6e7d226cb0f675173b981c81a9e44c7df7ec38ea0d941c",
        "submittedAt": 1638738012779
      }
    ]
  },
  "txHash": "0x02b13133e61e4e50612ccd64c924ad712adc238ce47c0ac31d1ad8a3c72a6c52",
  "safeAppInfo": {
    "name": "Transaction Builder",
    "url": "https://apps.gnosis-safe.io/tx-builder",
    "logoUri": "https://apps.gnosis-safe.io/tx-builder/tx-builder.png"
  }
}
