{"safeAddress":"0xf2565317F3Ae8Ae9EA98E9Fe1e7FADC77F823cbD","txId":"multisig_0xf2565317F3Ae8Ae9EA98E9Fe1e7FADC77F823cbD_0x0403824b042e715de4f185943f1bc6769488c9e0cadb8853c019d1aca4c486e4","executedAt":1658756976000,"txStatus":"SUCCESS","txInfo":{"type":"Custom","to":{"value":"0x40A2aCCbd92BCA938b02010E17A5b8929b49130D","name":"Gnosis Safe: MultiSendCallOnly","logoUri":"https://safe-transaction-assets.staging.gnosisdev.com/contracts/logos/0x40A2aCCbd92BCA938b02010E17A5b8929b49130D.png"},"dataSize":"1188","value":"0","methodName":"multiSend","actionCount":3,"isCancellation":false},"txData":{"hexData":"0x8d80ff0a0000000000000000000000000000000000000000000000000000000000000020000000000000000000000000000000000000000000000000000000000000044b00469788fe6e9e9681c6ebf3bf78e7fd26fc01544600000000000000000000000000000000000000000000000000000000000000000000000000000000000000000000000000000000000000000000000000000044bd86e508736166652e6574680000000000000000000000000000000000000000000000000000000000000000000000001230b3d59858296a31053c1b8562ecf89a2f888b006c6ea0b60873255bb670f838b03db9d9a8f045c4000000000000000000000000000000000000000000000000000000000000000000000000000000000000000000000000000000000000000000000000000002a4bf6213e4000000000000000000000000000000000000000000000000000000000000000000000000000000000000000000000000000000000000000000000000000001a0000000000000000000000000000000000000000000000000000000005b49c9a000000000000000000000000000000000000000000000010f0e773148266b000000000000000000000000000000000000000000000000000000000000000000a0000000000000000000000000000000000000000000000000000000000000000f2afff9d0fdd83e2201455836223fee2847ae7322d4f7f09bb7c578d6ec37327102e25d9001a69dfec38773b024427e730528fcc2b42c1aa2dbf0ce7e354126e897223959773813a1fb6ead56341680165009b903de77bf625b9243cdd785238ab648e07389a1504be80eb1a744be71165818a5f2cd07a26aaffae36202fbc352b3138aea9a931a01fa29098f944624395febfec78821853e7f98d2f0ce9fc39ffa799f95ddea43997e813c56cff91ea534b3dfaa16f783de0617293b1733198c49730b57dac635185f421b65712b790439c565685a91256f8143da0258c6b5eb3f4e12da98a09443c66f5b17d655d67ea01d9402b94d6e3f74ddd6f9517b52182fba8c6a6abe5e75bdae72a5d82673d5c162e0643d806fa272b5ffcee4b9066ea292b0ba688cb3929bcd4ed25a39009accde44250ffca84edc33124d44458f785227d068a114125d30fda4c6f0e9246f6ae06b48648f1757df2d2a23e144bb9aab74759c1213376a878564e58beb94d22a7f16ec73fd2daffef53f732004b6515e0363b0793b603e910e496c2f7438edf5f4f8806a78a4e1b63196f8d191c08c9aba625c72fecba7d9d941c24f0dec6e2ccc3eb5e8fb16387f0a0854fb660cbefe184da3981546ee7f116325cb9e4c20619398cb1b5592814a297045be298aa0006c6ea0b60873255bb670f838b03db9d9a8f045c4000000000000000000000000000000000000000000000000000000000000000000000000000000000000000000000000000000000000000000000000000000640087b83f43bd50ee8ba9b4511181dc62d1ca6ce6418523de2738709e1a8d76ddc4737624000000000000000000000000f2565317f3ae8ae9ea98e9fe1e7fadc77f823cbd0000000000000000000000000000000000000000000000000de0b6b3a7640000000000000000000000000000000000000000000000","dataDecoded":{"method":"multiSend","parameters":[{"name":"transactions","type":"bytes","value":"0x00469788fe6e9e9681c6ebf3bf78e7fd26fc01544600000000000000000000000000000000000000000000000000000000000000000000000000000000000000000000000000000000000000000000000000000044bd86e508736166652e6574680000000000000000000000000000000000000000000000000000000000000000000000001230b3d59858296a31053c1b8562ecf89a2f888b006c6ea0b60873255bb670f838b03db9d9a8f045c4000000000000000000000000000000000000000000000000000000000000000000000000000000000000000000000000000000000000000000000000000002a4bf6213e4000000000000000000000000000000000000000000000000000000000000000000000000000000000000000000000000000000000000000000000000000001a0000000000000000000000000000000000000000000000000000000005b49c9a000000000000000000000000000000000000000000000010f0e773148266b000000000000000000000000000000000000000000000000000000000000000000a0000000000000000000000000000000000000000000000000000000000000000f2afff9d0fdd83e2201455836223fee2847ae7322d4f7f09bb7c578d6ec37327102e25d9001a69dfec38773b024427e730528fcc2b42c1aa2dbf0ce7e354126e897223959773813a1fb6ead56341680165009b903de77bf625b9243cdd785238ab648e07389a1504be80eb1a744be71165818a5f2cd07a26aaffae36202fbc352b3138aea9a931a01fa29098f944624395febfec78821853e7f98d2f0ce9fc39ffa799f95ddea43997e813c56cff91ea534b3dfaa16f783de0617293b1733198c49730b57dac635185f421b65712b790439c565685a91256f8143da0258c6b5eb3f4e12da98a09443c66f5b17d655d67ea01d9402b94d6e3f74ddd6f9517b52182fba8c6a6abe5e75bdae72a5d82673d5c162e0643d806fa272b5ffcee4b9066ea292b0ba688cb3929bcd4ed25a39009accde44250ffca84edc33124d44458f785227d068a114125d30fda4c6f0e9246f6ae06b48648f1757df2d2a23e144bb9aab74759c1213376a878564e58beb94d22a7f16ec73fd2daffef53f732004b6515e0363b0793b603e910e496c2f7438edf5f4f8806a78a4e1b63196f8d191c08c9aba625c72fecba7d9d941c24f0dec6e2ccc3eb5e8fb16387f0a0854fb660cbefe184da3981546ee7f116325cb9e4c20619398cb1b5592814a297045be298aa0006c6ea0b60873255bb670f838b03db9d9a8f045c4000000000000000000000000000000000000000000000000000000000000000000000000000000000000000000000000000000000000000000000000000000640087b83f43bd50ee8ba9b4511181dc62d1ca6ce6418523de2738709e1a8d76ddc4737624000000000000000000000000f2565317f3ae8ae9ea98e9fe1e7fadc77f823cbd0000000000000000000000000000000000000000000000000de0b6b3a7640000","valueDecoded":[{"operation":0,"to":"0x469788fE6E9E9681C6ebF3bF78e7Fd26Fc015446","value":"0","data":"0xbd86e508736166652e6574680000000000000000000000000000000000000000000000000000000000000000000000001230b3d59858296a31053c1b8562ecf89a2f888b","dataDecoded":{"method":"setDelegate","parameters":[{"name":"id","type":"bytes32","value":"0x736166652e657468000000000000000000000000000000000000000000000000"},{"name":"delegate","type":"address","value":"0x1230B3d59858296A31053C1b8562Ecf89A2f888b"}]}},{"operation":0,"to":"0x6C6ea0B60873255bb670F838b03db9d9a8f045c4","value":"0","data":"0xbf6213e4000000000000000000000000000000000000000000000000000000000000000000000000000000000000000000000000000000000000000000000000000001a0000000000000000000000000000000000000000000000000000000005b49c9a000000000000000000000000000000000000000000000010f0e773148266b000000000000000000000000000000000000000000000000000000000000000000a0000000000000000000000000000000000000000000000000000000000000000f2afff9d0fdd83e2201455836223fee2847ae7322d4f7f09bb7c578d6ec37327102e25d9001a69dfec38773b024427e730528fcc2b42c1aa2dbf0ce7e354126e897223959773813a1fb6ead56341680165009b903de77bf625b9243cdd785238ab648e07389a1504be80eb1a744be71165818a5f2cd07a26aaffae36202fbc352b3138aea9a931a01fa29098f944624395febfec78821853e7f98d2f0ce9fc39ffa799f95ddea43997e813c56cff91ea534b3dfaa16f783de0617293b1733198c49730b57dac635185f421b65712b790439c565685a91256f8143da0258c6b5eb3f4e12da98a09443c66f5b17d655d67ea01d9402b94d6e3f74ddd6f9517b52182fba8c6a6abe5e75bdae72a5d82673d5c162e0643d806fa272b5ffcee4b9066ea292b0ba688cb3929bcd4ed25a39009accde44250ffca84edc33124d44458f785227d068a114125d30fda4c6f0e9246f6ae06b48648f1757df2d2a23e144bb9aab74759c1213376a878564e58beb94d22a7f16ec73fd2daffef53f732004b6515e0363b0793b603e910e496c2f7438edf5f4f8806a78a4e1b63196f8d191c08c9aba625c72fecba7d9d941c24f0dec6e2ccc3eb5e8fb16387f0a0854fb660cbefe184da3981546ee7f116325cb9e4c20619398cb1b5592814a297045be298aa0","dataDecoded":null},{"operation":0,"to":"0x6C6ea0B60873255bb670F838b03db9d9a8f045c4","value":"0","data":"0x0087b83f43bd50ee8ba9b4511181dc62d1ca6ce6418523de2738709e1a8d76ddc4737624000000000000000000000000f2565317f3ae8ae9ea98e9fe1e7fadc77f823cbd0000000000000000000000000000000000000000000000000de0b6b3a7640000","dataDecoded":null}]}]},"to":{"value":"0x40A2aCCbd92BCA938b02010E17A5b8929b49130D","name":"Gnosis Safe: MultiSendCallOnly","logoUri":"https://safe-transaction-assets.staging.gnosisdev.com/contracts/logos/0x40A2aCCbd92BCA938b02010E17A5b8929b49130D.png"},"value":"0","operation":1,"trustedDelegateCallTarget":true},"detailedExecutionInfo":{"type":"MULTISIG","submittedAt":1658756976000,"nonce":268,"safeTxGas":"0","baseGas":"0","gasPrice":"0","gasToken":"0x0000000000000000000000000000000000000000","refundReceiver":{"value":"0x0000000000000000000000000000000000000000"},"safeTxHash":"0x0403824b042e715de4f185943f1bc6769488c9e0cadb8853c019d1aca4c486e4","executor":{"value":"0x65F8236309e5A99Ff0d129d04E486EBCE20DC7B0"},"signers":[{"value":"0x0cBBce4574C0B1EAB46c9AaCF72Acb6Ee485Ad3b"},{"value":"0x65F8236309e5A99Ff0d129d04E486EBCE20DC7B0"},{"value":"0x448E4E6DD37523A5c7804D75a67754c24bFbFb32"},{"value":"0x72E5187E04BAB54C0e08920A6ebF5128d1c2F215"},{"value":"0x12536c4952c71b32c9f97FdC2BAC8CFB156A9dAf"},{"value":"0xfDDB1e19a973d7EDf1211970AF3E42d40acfd20F"},{"value":"0x8bc9Ab35a2A8b20ad8c23410C61db69F2e5d8164"},{"value":"0x36ec0aF05ac5fAbb9384Cc340F08D3504E6190e8"},{"value":"0x76d1BcA1357E1A31BE30f973Cbb8bE62c8dC5CDc"},{"value":"0xaD86EecCbaC5e47848649936cf1efE78D56b1F66"},{"value":"0x4c3c38a459F0bAABB763290111B66ed01b5fEfA2"},{"value":"0xBEA2F9227230976d2813a2f8b922c22bE1DE1B23"}],"confirmationsRequired":2,"confirmations":[{"signer":{"value":"0x4c3c38a459F0bAABB763290111B66ed01b5fEfA2"},"signature":"0xfc5bac0b1cca5f89c2e6eeb532ceb98c6433ccb2017163b41479b146b68ccc7768d0b85fe8ca36226ff6ca4b0f8da1f5bc788bdb59ed9e0658a2de4d666dd9df1c","submittedAt":1658756976000},{"signer":{"value":"0x65F8236309e5A99Ff0d129d04E486EBCE20DC7B0"},"signature":"0xd14f9e7fcfa285fe3b44f1735b3831e555caa6a69139737e95f0ab966d293c56569a7160264962f453651e650ada40687ce2f0e95445d66f335532693d8d9a4a1c","submittedAt":1658756976000}],"rejectors":[{"value":"0x65F8236309e5A99Ff0d129d04E486EBCE20DC7B0"},{"value":"0x4c3c38a459F0bAABB763290111B66ed01b5fEfA2"}]},"txHash":"0x6f063e8de473bdb6085249d80143b283ebaac08f6712eae974ada755f474b62e"}
