{
  "safeAddress": "0xfF501B324DC6d78dC9F983f140B9211c3EdB4dc7",
  "txId": "multisig_0xfF501B324DC6d78dC9F983f140B9211c3EdB4dc7_0x31edaeb391056da2662d30ec3d9bfc8a82e23d3d3b5e472a8a3056f98bbf9842",
  "executedAt": null,
  "txStatus": "AWAITING_CONFIRMATIONS",
  "txInfo": {
    "type": "Custom",
    "to": {
      "value": "0x8D29bE29923b68abfDD21e541b9374737B49cdAD",
      "name": "Gnosis Safe: Multi Send 1.1.1",
      "logoUri": "https://safe-transaction-assets.staging.5afe.dev/contracts/logos/0x8D29bE29923b68abfDD21e541b9374737B49cdAD.png"
    },
    "dataSize": "964",
    "value": "0",
    "methodName": "multiSend",
    "actionCount": 2,
    "isCancellation": false
  },
  "txData": {
    "hexData": "0x8d80ff0a00000000000000000000000000000000000000000000000000000000000000200000000000000000000000000000000000000000000000000000000000000372006810e776880c02933d47db1b9fc05908e5386b9600000000000000000000000000000000000000000000000000000000000000000000000000000000000000000000000000000000000000000000000000000044095ea7b30000000000000000000000003e66b66fd1d0b02fda6c811da9e0547970db2f21000000000000000000000000000000000000000000000002b5e3af16b1880000003e66b66fd1d0b02fda6c811da9e0547970db2f2100000000000000000000000000000000000000000000000000000000000000000000000000000000000000000000000000000000000000000000000000000284e2b3974600000000000000000000000000000000000000000000000000000000000000a00000000000000000000000006810e776880c02933d47db1b9fc05908e5386b960000000000000000000000007fc66500c84a76ad7e9c93437bfc5ac33e2ddae9000000000000000000000000000000000000000000000002b5e3af16b1880000000000000000000000000000000000000000000000000000c2aea5080be57489000000000000000000000000000000000000000000000000000000000000000100000000000000000000000000000000000000000000000000000000000000200000000000000000000000000000000000000000000000000000000000000002000000000000000000000000e42237f32708bd5c04d69cc77e1e36c8f911a0160000000000000000000000006810e776880c02933d47db1b9fc05908e5386b96000000000000000000000000c02aaa39b223fe8d0a0e5c4f27ead9083c756cc2000000000000000000000000000000000000000000000002b5e3af16b18800000000000000000000000000000000000000000000000000000000000000000000ffffffffffffffffffffffffffffffffffffffffffffffffffffffffffffffff0000000000000000000000007c90a3cd7ec80dd2f633ed562480abbeed3be546000000000000000000000000c02aaa39b223fe8d0a0e5c4f27ead9083c756cc20000000000000000000000007fc66500c84a76ad7e9c93437bfc5ac33e2ddae90000000000000000000000000000000000000000000000003920d95bfbc38fea0000000000000000000000000000000000000000000000000000000000000000ffffffffffffffffffffffffffffffffffffffffffffffffffffffffffffffff0000000000000000000000000000",
    "dataDecoded": {
      "method": "multiSend",
      "parameters": [
        {
          "name": "transactions",
          "type": "bytes",
          "value": "0x006810e776880c02933d47db1b9fc05908e5386b9600000000000000000000000000000000000000000000000000000000000000000000000000000000000000000000000000000000000000000000000000000044095ea7b30000000000000000000000003e66b66fd1d0b02fda6c811da9e0547970db2f21000000000000000000000000000000000000000000000002b5e3af16b1880000003e66b66fd1d0b02fda6c811da9e0547970db2f2100000000000000000000000000000000000000000000000000000000000000000000000000000000000000000000000000000000000000000000000000000284e2b3974600000000000000000000000000000000000000000000000000000000000000a00000000000000000000000006810e776880c02933d47db1b9fc05908e5386b960000000000000000000000007fc66500c84a76ad7e9c93437bfc5ac33e2ddae9000000000000000000000000000000000000000000000002b5e3af16b1880000000000000000000000000000000000000000000000000000c2aea5080be57489000000000000000000000000000000000000000000000000000000000000000100000000000000000000000000000000000000000000000000000000000000200000000000000000000000000000000000000000000000000000000000000002000000000000000000000000e42237f32708bd5c04d69cc77e1e36c8f911a0160000000000000000000000006810e776880c02933d47db1b9fc05908e5386b96000000000000000000000000c02aaa39b223fe8d0a0e5c4f27ead9083c756cc2000000000000000000000000000000000000000000000002b5e3af16b18800000000000000000000000000000000000000000000000000000000000000000000ffffffffffffffffffffffffffffffffffffffffffffffffffffffffffffffff0000000000000000000000007c90a3cd7ec80dd2f633ed562480abbeed3be546000000000000000000000000c02aaa39b223fe8d0a0e5c4f27ead9083c756cc20000000000000000000000007fc66500c84a76ad7e9c93437bfc5ac33e2ddae90000000000000000000000000000000000000000000000003920d95bfbc38fea0000000000000000000000000000000000000000000000000000000000000000ffffffffffffffffffffffffffffffffffffffffffffffffffffffffffffffff",
          "valueDecoded": [
            {
              "operation": 0,
              "to": "0x6810e776880C02933D47DB1b9fc05908e5386b96",
              "value": "0",
              "data": "0x095ea7b30000000000000000000000003e66b66fd1d0b02fda6c811da9e0547970db2f21000000000000000000000000000000000000000000000002b5e3af16b1880000",
              "dataDecoded": {
                "method": "approve",
                "parameters": [
                  {
                    "name": "_spender",
                    "type": "address",
                    "value": "0x3E66B66Fd1d0b02fDa6C811Da9E0547970DB2f21"
                  },
                  {
                    "name": "_value",
                    "type": "uint256",
                    "value": "50000000000000000000"
                  }
                ]
              }
            },
            {
              "operation": 0,
              "to": "0x3E66B66Fd1d0b02fDa6C811Da9E0547970DB2f21",
              "value": "0",
              "data": "0xe2b3974600000000000000000000000000000000000000000000000000000000000000a00000000000000000000000006810e776880c02933d47db1b9fc05908e5386b960000000000000000000000007fc66500c84a76ad7e9c93437bfc5ac33e2ddae9000000000000000000000000000000000000000000000002b5e3af16b1880000000000000000000000000000000000000000000000000000c2aea5080be57489000000000000000000000000000000000000000000000000000000000000000100000000000000000000000000000000000000000000000000000000000000200000000000000000000000000000000000000000000000000000000000000002000000000000000000000000e42237f32708bd5c04d69cc77e1e36c8f911a0160000000000000000000000006810e776880c02933d47db1b9fc05908e5386b96000000000000000000000000c02aaa39b223fe8d0a0e5c4f27ead9083c756cc2000000000000000000000000000000000000000000000002b5e3af16b18800000000000000000000000000000000000000000000000000000000000000000000ffffffffffffffffffffffffffffffffffffffffffffffffffffffffffffffff0000000000000000000000007c90a3cd7ec80dd2f633ed562480abbeed3be546000000000000000000000000c02aaa39b223fe8d0a0e5c4f27ead9083c756cc20000000000000000000000007fc66500c84a76ad7e9c93437bfc5ac33e2ddae90000000000000000000000000000000000000000000000003920d95bfbc38fea0000000000000000000000000000000000000000000000000000000000000000ffffffffffffffffffffffffffffffffffffffffffffffffffffffffffffffff",
              "dataDecoded": {
                "method": "multihopBatchSwapExactIn",
                "parameters": [
                  {
                    "name": "swapSequences",
                    "type": "(address,address,address,uint256,uint256,uint256)[][]",
                    "value": [
                      [
                        [
                          "0xE42237F32708BD5C04D69cC77E1E36C8F911A016",
                          "0x6810e776880C02933D47DB1b9fc05908e5386b96",
                          "0xC02aaA39b223FE8D0A0e5C4F27eAD9083C756Cc2",
                          "50000000000000000000",
                          "0",
                          "115792089237316195423570985008687907853269984665640564039457584007913129639935"
                        ],
                        [
                          "0x7c90a3cd7Ec80dd2F633ed562480AbbEEd3bE546",
                          "0xC02aaA39b223FE8D0A0e5C4F27eAD9083C756Cc2",
                          "0x7Fc66500c84A76Ad7e9c93437bFc5Ac33E2DDaE9",
                          "4116529048505782250",
                          "0",
                          "115792089237316195423570985008687907853269984665640564039457584007913129639935"
                        ]
                      ]
                    ]
                  },
                  {
                    "name": "tokenIn",
                    "type": "address",
                    "value": "0x6810e776880C02933D47DB1b9fc05908e5386b96"
                  },
                  {
                    "name": "tokenOut",
                    "type": "address",
                    "value": "0x7Fc66500c84A76Ad7e9c93437bFc5Ac33E2DDaE9"
                  },
                  {
                    "name": "totalAmountIn",
                    "type": "uint256",
                    "value": "50000000000000000000"
                  },
                  {
                    "name": "minTotalAmountOut",
                    "type": "uint256",
                    "value": "14028331343283582089"
                  }
                ]
              }
            }
          ]
        }
      ]
    },
    "to": {
      "value": "0x8D29bE29923b68abfDD21e541b9374737B49cdAD",
      "name": "Gnosis Safe: Multi Send 1.1.1",
      "logoUri": "https://safe-transaction-assets.staging.5afe.dev/contracts/logos/0x8D29bE29923b68abfDD21e541b9374737B49cdAD.png"
    },
    "value": "0",
    "operation": 1,
    "trustedDelegateCallTarget": true,
    "addressInfoIndex": {
      "0x6810e776880C02933D47DB1b9fc05908e5386b96": {
        "value": "0x6810e776880C02933D47DB1b9fc05908e5386b96",
        "name": "Gnosis",
        "logoUri": "https://safe-transaction-assets.staging.5afe.dev/tokens/logos/0x6810e776880C02933D47DB1b9fc05908e5386b96.png"
      },
      "0x7Fc66500c84A76Ad7e9c93437bFc5Ac33E2DDaE9": {
        "value": "0x7Fc66500c84A76Ad7e9c93437bFc5Ac33E2DDaE9",
        "name": "Aave Token",
        "logoUri": "https://safe-transaction-assets.staging.5afe.dev/tokens/logos/0x7Fc66500c84A76Ad7e9c93437bFc5Ac33E2DDaE9.png"
      }
    }
  },
  "detailedExecutionInfo": {
    "type": "MULTISIG",
    "submittedAt": 1612801537059,
    "nonce": 21,
    "safeTxGas": "692373",
    "baseGas": "0",
    "gasPrice": "0",
    "gasToken": "0x0000000000000000000000000000000000000000",
    "refundReceiver": {
      "value": "0x0000000000000000000000000000000000000000"
    },
    "safeTxHash": "0x31edaeb391056da2662d30ec3d9bfc8a82e23d3d3b5e472a8a3056f98bbf9842",
    "executor": null,
    "signers": [
      {
        "value": "0x9F87C1aCaF3Afc6a5557c58284D9F8609470b571"
      },
      {
        "value": "0x8712128BEA09C9687Df05A5D692F3750F8086C81"
      },
      {
        "value": "0x80F59C1D46EFC1Bb18F0AaEc132b77266f00Be9a"
      },
      {
        "value": "0x9F7dfAb2222A473284205cdDF08a677726d786A0"
      }
    ],
    "confirmationsRequired": 2,
    "confirmations": [
      {
        "signer": {
          "value": "0x8712128BEA09C9687Df05A5D692F3750F8086C81"
        },
        "signature": "0xeab30e5d692c0b376bd315945dd54a4bd9c885077911f9d2d0cb6e54225bb1593d026790e82cf3a46b079a74c86768263f0647201c004de5e4a7d0177905d30c1b",
        "submittedAt": 1612801538041
      }
    ]
  },
  "txHash": null
}
